{
  "_format": "hh-sol-artifact-1",
  "contractName": "faucet",
  "sourceName": "contracts/Faucet.sol",
  "abi": [
    {
      "inputs": [],
      "stateMutability": "payable",
      "type": "constructor"
    },
    {
      "inputs": [],
      "name": "amountAllowedPerDay",
      "outputs": [
        {
          "internalType": "uint256",
          "name": "",
          "type": "uint256"
        }
      ],
      "stateMutability": "view",
      "type": "function"
    },
    {
      "inputs": [],
      "name": "amountAllowedPerMonth",
      "outputs": [
        {
          "internalType": "uint256",
          "name": "",
          "type": "uint256"
        }
      ],
      "stateMutability": "view",
      "type": "function"
    },
    {
      "inputs": [],
      "name": "amountAllowedPerWeek",
      "outputs": [
        {
          "internalType": "uint256",
          "name": "",
          "type": "uint256"
        }
      ],
      "stateMutability": "view",
      "type": "function"
    },
    {
      "inputs": [
        {
          "internalType": "address",
          "name": "",
          "type": "address"
        }
      ],
      "name": "amountFaucet",
      "outputs": [
        {
          "internalType": "uint256",
          "name": "",
          "type": "uint256"
        }
      ],
      "stateMutability": "view",
      "type": "function"
    },
    {
      "inputs": [],
      "name": "donate",
      "outputs": [],
      "stateMutability": "payable",
      "type": "function"
    },
    {
      "inputs": [
        {
          "internalType": "address",
          "name": "",
          "type": "address"
        }
      ],
      "name": "lockTime",
      "outputs": [
        {
          "internalType": "uint256",
          "name": "",
          "type": "uint256"
        }
      ],
      "stateMutability": "view",
      "type": "function"
    },
    {
      "inputs": [],
      "name": "owner",
      "outputs": [
        {
          "internalType": "address",
          "name": "",
          "type": "address"
        }
      ],
      "stateMutability": "view",
      "type": "function"
    },
    {
      "inputs": [
        {
          "internalType": "address payable",
          "name": "requestor",
          "type": "address"
        }
      ],
      "name": "requestTokenByMonth",
      "outputs": [],
      "stateMutability": "nonpayable",
      "type": "function"
    },
    {
      "inputs": [
        {
          "internalType": "address payable",
          "name": "requestor",
          "type": "address"
        }
      ],
      "name": "requestTokenByWeek",
      "outputs": [],
      "stateMutability": "nonpayable",
      "type": "function"
    },
    {
      "inputs": [
        {
          "internalType": "address payable",
          "name": "requestor",
          "type": "address"
        }
      ],
      "name": "requestTokensByDay",
      "outputs": [],
      "stateMutability": "nonpayable",
      "type": "function"
    },
    {
      "inputs": [
        {
          "internalType": "uint256",
          "name": "newAmountAllowed",
          "type": "uint256"
        }
      ],
      "name": "setAmountallowedPerDay",
      "outputs": [],
      "stateMutability": "nonpayable",
      "type": "function"
    },
    {
      "inputs": [
        {
          "internalType": "uint256",
          "name": "newAmountAllowed",
          "type": "uint256"
        }
      ],
      "name": "setAmountallowedPerMonth",
      "outputs": [],
      "stateMutability": "nonpayable",
      "type": "function"
    },
    {
      "inputs": [
        {
          "internalType": "uint256",
          "name": "newAmountAllowed",
          "type": "uint256"
        }
      ],
      "name": "setAmountallowedPerWeek",
      "outputs": [],
      "stateMutability": "nonpayable",
      "type": "function"
    }
  ],
  "bytecode": "0x6080604052670de0b6b3a76400006001556729a2241af62c0000600255678ac7230489e80000600355336000806101000a81548173ffffffffffffffffffffffffffffffffffffffff021916908373ffffffffffffffffffffffffffffffffffffffff160217905550610d13806100776000396000f3fe6080604052600436106100c15760003560e01c8063a145197d1161007f578063c90f174e11610059578063c90f174e14610265578063eb5155e01461028e578063ed88c68e146102b7578063f11904d8146102c1576100c1565b8063a145197d146101c2578063a4beda63146101ff578063c41fec041461023c576100c1565b80626b68fa146100c657806301518ec1146100ef578063210333021461011857806321ec1196146101435780638da5cb5b1461016c57806397f6a5c914610197575b600080fd5b3480156100d257600080fd5b506100ed60048036038101906100e891906109f6565b6102ec565b005b3480156100fb57600080fd5b50610116600480360381019061011191906109f6565b610469565b005b34801561012457600080fd5b5061012d6105e6565b60405161013a9190610a3c565b60405180910390f35b34801561014f57600080fd5b5061016a60048036038101906101659190610a83565b6105ec565b005b34801561017857600080fd5b50610181610684565b60405161018e9190610ad1565b60405180910390f35b3480156101a357600080fd5b506101ac6106a8565b6040516101b99190610a3c565b60405180910390f35b3480156101ce57600080fd5b506101e960048036038101906101e49190610b18565b6106ae565b6040516101f69190610a3c565b60405180910390f35b34801561020b57600080fd5b5061022660048036038101906102219190610b18565b6106c6565b6040516102339190610a3c565b60405180910390f35b34801561024857600080fd5b50610263600480360381019061025e91906109f6565b6106de565b005b34801561027157600080fd5b5061028c60048036038101906102879190610a83565b61085b565b005b34801561029a57600080fd5b506102b560048036038101906102b09190610a83565b6108f3565b005b6102bf61098b565b005b3480156102cd57600080fd5b506102d661098d565b6040516102e39190610a3c565b60405180910390f35b42600460008373ffffffffffffffffffffffffffffffffffffffff1673ffffffffffffffffffffffffffffffffffffffff168152602001908152602001600020541061036d576040517f08c379a000000000000000000000000000000000000000000000000000000000815260040161036490610bc8565b60405180910390fd5b62093a804261037c9190610c17565b600460008373ffffffffffffffffffffffffffffffffffffffff1673ffffffffffffffffffffffffffffffffffffffff168152602001908152602001600020819055508073ffffffffffffffffffffffffffffffffffffffff166108fc6002549081150290604051600060405180830381858888f19350505050158015610407573d6000803e3d6000fd5b506729a2241af62c0000600560008373ffffffffffffffffffffffffffffffffffffffff1673ffffffffffffffffffffffffffffffffffffffff168152602001908152602001600020600082825461045f9190610c17565b9250508190555050565b42600460008373ffffffffffffffffffffffffffffffffffffffff1673ffffffffffffffffffffffffffffffffffffffff16815260200190815260200160002054106104ea576040517f08c379a00000000000000000000000000000000000000000000000000000000081526004016104e190610bc8565b60405180910390fd5b62015180426104f99190610c17565b600460008373ffffffffffffffffffffffffffffffffffffffff1673ffffffffffffffffffffffffffffffffffffffff168152602001908152602001600020819055508073ffffffffffffffffffffffffffffffffffffffff166108fc6001549081150290604051600060405180830381858888f19350505050158015610584573d6000803e3d6000fd5b50670de0b6b3a7640000600560008373ffffffffffffffffffffffffffffffffffffffff1673ffffffffffffffffffffffffffffffffffffffff16815260200190815260200160002060008282546105dc9190610c17565b9250508190555050565b60025481565b60008054906101000a900473ffffffffffffffffffffffffffffffffffffffff1673ffffffffffffffffffffffffffffffffffffffff163373ffffffffffffffffffffffffffffffffffffffff161461067a576040517f08c379a000000000000000000000000000000000000000000000000000000000815260040161067190610cbd565b60405180910390fd5b8060018190555050565b60008054906101000a900473ffffffffffffffffffffffffffffffffffffffff1681565b60035481565b60056020528060005260406000206000915090505481565b60046020528060005260406000206000915090505481565b42600460008373ffffffffffffffffffffffffffffffffffffffff1673ffffffffffffffffffffffffffffffffffffffff168152602001908152602001600020541061075f576040517f08c379a000000000000000000000000000000000000000000000000000000000815260040161075690610bc8565b60405180910390fd5b62093a804261076e9190610c17565b600460008373ffffffffffffffffffffffffffffffffffffffff1673ffffffffffffffffffffffffffffffffffffffff168152602001908152602001600020819055508073ffffffffffffffffffffffffffffffffffffffff166108fc6003549081150290604051600060405180830381858888f193505050501580156107f9573d6000803e3d6000fd5b50678ac7230489e80000600560008373ffffffffffffffffffffffffffffffffffffffff1673ffffffffffffffffffffffffffffffffffffffff16815260200190815260200160002060008282546108519190610c17565b9250508190555050565b60008054906101000a900473ffffffffffffffffffffffffffffffffffffffff1673ffffffffffffffffffffffffffffffffffffffff163373ffffffffffffffffffffffffffffffffffffffff16146108e9576040517f08c379a00000000000000000000000000000000000000000000000000000000081526004016108e090610cbd565b60405180910390fd5b8060038190555050565b60008054906101000a900473ffffffffffffffffffffffffffffffffffffffff1673ffffffffffffffffffffffffffffffffffffffff163373ffffffffffffffffffffffffffffffffffffffff1614610981576040517f08c379a000000000000000000000000000000000000000000000000000000000815260040161097890610cbd565b60405180910390fd5b8060028190555050565b565b60015481565b600080fd5b600073ffffffffffffffffffffffffffffffffffffffff82169050919050565b60006109c382610998565b9050919050565b6109d3816109b8565b81146109de57600080fd5b50565b6000813590506109f0816109ca565b92915050565b600060208284031215610a0c57610a0b610993565b5b6000610a1a848285016109e1565b91505092915050565b6000819050919050565b610a3681610a23565b82525050565b6000602082019050610a516000830184610a2d565b92915050565b610a6081610a23565b8114610a6b57600080fd5b50565b600081359050610a7d81610a57565b92915050565b600060208284031215610a9957610a98610993565b5b6000610aa784828501610a6e565b91505092915050565b6000610abb82610998565b9050919050565b610acb81610ab0565b82525050565b6000602082019050610ae66000830184610ac2565b92915050565b610af581610ab0565b8114610b0057600080fd5b50565b600081359050610b1281610aec565b92915050565b600060208284031215610b2e57610b2d610993565b5b6000610b3c84828501610b03565b91505092915050565b600082825260208201905092915050565b7f596f7572206c6f636b2074696d652068617320657870697265642c20706c656160008201527f7365207761697420746f20666175636574210000000000000000000000000000602082015250565b6000610bb2603283610b45565b9150610bbd82610b56565b604082019050919050565b60006020820190508181036000830152610be181610ba5565b9050919050565b7f4e487b7100000000000000000000000000000000000000000000000000000000600052601160045260246000fd5b6000610c2282610a23565b9150610c2d83610a23565b9250828201905080821115610c4557610c44610be8565b5b92915050565b7f4f6e6c79204f776e65722063616e2063616c6c20746869732066756e6374696f60008201527f6e2e000000000000000000000000000000000000000000000000000000000000602082015250565b6000610ca7602283610b45565b9150610cb282610c4b565b604082019050919050565b60006020820190508181036000830152610cd681610c9a565b905091905056fea2646970667358221220bab0d9f5e85b29ae5b93f2fe75b5f9eb1a8e0625083b433df3d1b6db422a183964736f6c63430008120033",
  "linkReferences": {},
  "deployedLinkReferences": {}
}