{
  "_format": "hh-sol-artifact-1",
  "contractName": "faucet",
  "sourceName": "contracts/Faucet.sol",
  "abi": [
    {
      "inputs": [],
      "stateMutability": "payable",
      "type": "constructor"
    },
    {
      "inputs": [],
      "name": "amountAllowedPerDay",
      "outputs": [
        {
          "internalType": "uint256",
          "name": "",
          "type": "uint256"
        }
      ],
      "stateMutability": "view",
      "type": "function"
    },
    {
      "inputs": [],
      "name": "amountAllowedPerMonth",
      "outputs": [
        {
          "internalType": "uint256",
          "name": "",
          "type": "uint256"
        }
      ],
      "stateMutability": "view",
      "type": "function"
    },
    {
      "inputs": [],
      "name": "amountAllowedPerWeek",
      "outputs": [
        {
          "internalType": "uint256",
          "name": "",
          "type": "uint256"
        }
      ],
      "stateMutability": "view",
      "type": "function"
    },
    {
      "inputs": [
        {
          "internalType": "address",
          "name": "",
          "type": "address"
        }
      ],
      "name": "amountFaucet",
      "outputs": [
        {
          "internalType": "uint256",
          "name": "",
          "type": "uint256"
        }
      ],
      "stateMutability": "view",
      "type": "function"
    },
    {
      "inputs": [],
      "name": "donate",
      "outputs": [],
      "stateMutability": "payable",
      "type": "function"
    },
    {
      "inputs": [
        {
          "internalType": "address payable",
          "name": "newAdmin",
          "type": "address"
        }
      ],
      "name": "grantAdmin",
      "outputs": [],
      "stateMutability": "nonpayable",
      "type": "function"
    },
    {
      "inputs": [
        {
          "internalType": "address payable",
          "name": "newOwner",
          "type": "address"
        }
      ],
      "name": "grantOwner",
      "outputs": [],
      "stateMutability": "nonpayable",
      "type": "function"
    },
    {
      "inputs": [
        {
          "internalType": "address",
          "name": "",
          "type": "address"
        }
      ],
      "name": "lockTime",
      "outputs": [
        {
          "internalType": "uint256",
          "name": "",
          "type": "uint256"
        }
      ],
      "stateMutability": "view",
      "type": "function"
    },
    {
      "inputs": [],
      "name": "owner",
      "outputs": [
        {
          "internalType": "address payable",
          "name": "",
          "type": "address"
        }
      ],
      "stateMutability": "view",
      "type": "function"
    },
    {
      "inputs": [
        {
          "internalType": "address payable",
          "name": "requestor",
          "type": "address"
        }
      ],
      "name": "requestTokenByMonth",
      "outputs": [],
      "stateMutability": "nonpayable",
      "type": "function"
    },
    {
      "inputs": [
        {
          "internalType": "address payable",
          "name": "requestor",
          "type": "address"
        }
      ],
      "name": "requestTokenByWeek",
      "outputs": [],
      "stateMutability": "nonpayable",
      "type": "function"
    },
    {
      "inputs": [
        {
          "internalType": "address payable",
          "name": "requestor",
          "type": "address"
        }
      ],
      "name": "requestTokensByDay",
      "outputs": [],
      "stateMutability": "nonpayable",
      "type": "function"
    },
    {
      "inputs": [
        {
          "internalType": "uint256",
          "name": "newAmountAllowed",
          "type": "uint256"
        }
      ],
      "name": "setAmountallowedPerDay",
      "outputs": [],
      "stateMutability": "nonpayable",
      "type": "function"
    },
    {
      "inputs": [
        {
          "internalType": "uint256",
          "name": "newAmountAllowed",
          "type": "uint256"
        }
      ],
      "name": "setAmountallowedPerMonth",
      "outputs": [],
      "stateMutability": "nonpayable",
      "type": "function"
    },
    {
      "inputs": [
        {
          "internalType": "uint256",
          "name": "newAmountAllowed",
          "type": "uint256"
        }
      ],
      "name": "setAmountallowedPerWeek",
      "outputs": [],
      "stateMutability": "nonpayable",
      "type": "function"
    },
    {
      "inputs": [],
      "name": "withdrawal",
      "outputs": [],
      "stateMutability": "nonpayable",
      "type": "function"
    },
    {
      "stateMutability": "payable",
      "type": "receive"
    }
  ],
  "bytecode": "0x6080604052670de0b6b3a76400006001556729a2241af62c0000600255678ac7230489e80000600355336000806101000a81548173ffffffffffffffffffffffffffffffffffffffff021916908373ffffffffffffffffffffffffffffffffffffffff1602179055506001600460008060009054906101000a900473ffffffffffffffffffffffffffffffffffffffff1673ffffffffffffffffffffffffffffffffffffffff1673ffffffffffffffffffffffffffffffffffffffff16815260200190815260200160002060006101000a81548160ff0219169083151502179055506113f5806100f06000396000f3fe6080604052600436106100f65760003560e01c8063a4beda631161008a578063dc97805911610059578063dc9780591461030a578063eb5155e014610333578063ed88c68e1461035c578063f11904d814610366576100fd565b8063a4beda6314610264578063c41fec04146102a1578063c90f174e146102ca578063d4e93292146102f3576100fd565b806335bb3e16116100c657806335bb3e16146101a85780638da5cb5b146101d157806397f6a5c9146101fc578063a145197d14610227576100fd565b80626b68fa1461010257806301518ec11461012b578063210333021461015457806321ec11961461017f576100fd565b366100fd57005b600080fd5b34801561010e57600080fd5b5061012960048036038101906101249190610e82565b610391565b005b34801561013757600080fd5b50610152600480360381019061014d9190610e82565b610496565b005b34801561016057600080fd5b5061016961059b565b6040516101769190610ec8565b60405180910390f35b34801561018b57600080fd5b506101a660048036038101906101a19190610f0f565b6105a1565b005b3480156101b457600080fd5b506101cf60048036038101906101ca9190610e82565b610639565b005b3480156101dd57600080fd5b506101e6610722565b6040516101f39190610f4b565b60405180910390f35b34801561020857600080fd5b50610211610746565b60405161021e9190610ec8565b60405180910390f35b34801561023357600080fd5b5061024e60048036038101906102499190610fa4565b61074c565b60405161025b9190610ec8565b60405180910390f35b34801561027057600080fd5b5061028b60048036038101906102869190610fa4565b610764565b6040516102989190610ec8565b60405180910390f35b3480156102ad57600080fd5b506102c860048036038101906102c39190610e82565b61077c565b005b3480156102d657600080fd5b506102f160048036038101906102ec9190610f0f565b61091d565b005b3480156102ff57600080fd5b506103086109b5565b005b34801561031657600080fd5b50610331600480360381019061032c9190610e82565b610ab1565b005b34801561033f57600080fd5b5061035a60048036038101906103559190610f0f565b610b82565b005b610364610c1a565b005b34801561037257600080fd5b5061037b610c1c565b6040516103889190610ec8565b60405180910390f35b61039a81610c22565b62093a80426103a99190611000565b600560008373ffffffffffffffffffffffffffffffffffffffff1673ffffffffffffffffffffffffffffffffffffffff168152602001908152602001600020819055506729a2241af62c0000600660008373ffffffffffffffffffffffffffffffffffffffff1673ffffffffffffffffffffffffffffffffffffffff16815260200190815260200160002060008282546104439190611000565b925050819055508073ffffffffffffffffffffffffffffffffffffffff166108fc6002549081150290604051600060405180830381858888f19350505050158015610492573d6000803e3d6000fd5b5050565b61049f81610c22565b62015180426104ae9190611000565b600560008373ffffffffffffffffffffffffffffffffffffffff1673ffffffffffffffffffffffffffffffffffffffff16815260200190815260200160002081905550670de0b6b3a7640000600660008373ffffffffffffffffffffffffffffffffffffffff1673ffffffffffffffffffffffffffffffffffffffff16815260200190815260200160002060008282546105489190611000565b925050819055508073ffffffffffffffffffffffffffffffffffffffff166108fc6001549081150290604051600060405180830381858888f19350505050158015610597573d6000803e3d6000fd5b5050565b60025481565b60008054906101000a900473ffffffffffffffffffffffffffffffffffffffff1673ffffffffffffffffffffffffffffffffffffffff163373ffffffffffffffffffffffffffffffffffffffff161461062f576040517f08c379a0000000000000000000000000000000000000000000000000000000008152600401610626906110b7565b60405180910390fd5b8060018190555050565b60008054906101000a900473ffffffffffffffffffffffffffffffffffffffff1673ffffffffffffffffffffffffffffffffffffffff163373ffffffffffffffffffffffffffffffffffffffff16146106c7576040517f08c379a00000000000000000000000000000000000000000000000000000000081526004016106be906110b7565b60405180910390fd5b6001600460008373ffffffffffffffffffffffffffffffffffffffff1673ffffffffffffffffffffffffffffffffffffffff16815260200190815260200160002060006101000a81548160ff02191690831515021790555050565b60008054906101000a900473ffffffffffffffffffffffffffffffffffffffff1681565b60035481565b60066020528060005260406000206000915090505481565b60056020528060005260406000206000915090505481565b61078581610c22565b678ac7230489e80000600660008373ffffffffffffffffffffffffffffffffffffffff1673ffffffffffffffffffffffffffffffffffffffff16815260200190815260200160002054678ac7230489e800006107e191906110d7565b14610821576040517f08c379a00000000000000000000000000000000000000000000000000000000081526004016108189061117d565b60405180910390fd5b62278d00426108309190611000565b600560008373ffffffffffffffffffffffffffffffffffffffff1673ffffffffffffffffffffffffffffffffffffffff16815260200190815260200160002081905550678ac7230489e80000600660008373ffffffffffffffffffffffffffffffffffffffff1673ffffffffffffffffffffffffffffffffffffffff16815260200190815260200160002060008282546108ca9190611000565b925050819055508073ffffffffffffffffffffffffffffffffffffffff166108fc6003549081150290604051600060405180830381858888f19350505050158015610919573d6000803e3d6000fd5b5050565b60008054906101000a900473ffffffffffffffffffffffffffffffffffffffff1673ffffffffffffffffffffffffffffffffffffffff163373ffffffffffffffffffffffffffffffffffffffff16146109ab576040517f08c379a00000000000000000000000000000000000000000000000000000000081526004016109a2906110b7565b60405180910390fd5b8060038190555050565b60011515600460003373ffffffffffffffffffffffffffffffffffffffff1673ffffffffffffffffffffffffffffffffffffffff16815260200190815260200160002060009054906101000a900460ff16151514610a48576040517f08c379a0000000000000000000000000000000000000000000000000000000008152600401610a3f906111e9565b60405180910390fd5b60008054906101000a900473ffffffffffffffffffffffffffffffffffffffff1673ffffffffffffffffffffffffffffffffffffffff166108fc479081150290604051600060405180830381858888f19350505050158015610aae573d6000803e3d6000fd5b50565b60008054906101000a900473ffffffffffffffffffffffffffffffffffffffff1673ffffffffffffffffffffffffffffffffffffffff163373ffffffffffffffffffffffffffffffffffffffff1614610b3f576040517f08c379a0000000000000000000000000000000000000000000000000000000008152600401610b36906110b7565b60405180910390fd5b806000806101000a81548173ffffffffffffffffffffffffffffffffffffffff021916908373ffffffffffffffffffffffffffffffffffffffff16021790555050565b60008054906101000a900473ffffffffffffffffffffffffffffffffffffffff1673ffffffffffffffffffffffffffffffffffffffff163373ffffffffffffffffffffffffffffffffffffffff1614610c10576040517f08c379a0000000000000000000000000000000000000000000000000000000008152600401610c07906110b7565b60405180910390fd5b8060028190555050565b565b60015481565b42600560008373ffffffffffffffffffffffffffffffffffffffff1673ffffffffffffffffffffffffffffffffffffffff168152602001908152602001600020541115610e1c576201518042600560008473ffffffffffffffffffffffffffffffffffffffff1673ffffffffffffffffffffffffffffffffffffffff16815260200190815260200160002054610cb891906110d7565b11610cf8576040517f08c379a0000000000000000000000000000000000000000000000000000000008152600401610cef9061127b565b60405180910390fd5b6201518042600560008473ffffffffffffffffffffffffffffffffffffffff1673ffffffffffffffffffffffffffffffffffffffff16815260200190815260200160002054610d4791906110d7565b118015610da1575062093a8042600560008473ffffffffffffffffffffffffffffffffffffffff1673ffffffffffffffffffffffffffffffffffffffff16815260200190815260200160002054610d9e91906110d7565b11155b15610de1576040517f08c379a0000000000000000000000000000000000000000000000000000000008152600401610dd89061130d565b60405180910390fd5b6040517f08c379a0000000000000000000000000000000000000000000000000000000008152600401610e139061139f565b60405180910390fd5b50565b600080fd5b600073ffffffffffffffffffffffffffffffffffffffff82169050919050565b6000610e4f82610e24565b9050919050565b610e5f81610e44565b8114610e6a57600080fd5b50565b600081359050610e7c81610e56565b92915050565b600060208284031215610e9857610e97610e1f565b5b6000610ea684828501610e6d565b91505092915050565b6000819050919050565b610ec281610eaf565b82525050565b6000602082019050610edd6000830184610eb9565b92915050565b610eec81610eaf565b8114610ef757600080fd5b50565b600081359050610f0981610ee3565b92915050565b600060208284031215610f2557610f24610e1f565b5b6000610f3384828501610efa565b91505092915050565b610f4581610e44565b82525050565b6000602082019050610f606000830184610f3c565b92915050565b6000610f7182610e24565b9050919050565b610f8181610f66565b8114610f8c57600080fd5b50565b600081359050610f9e81610f78565b92915050565b600060208284031215610fba57610fb9610e1f565b5b6000610fc884828501610f8f565b91505092915050565b7f4e487b7100000000000000000000000000000000000000000000000000000000600052601160045260246000fd5b600061100b82610eaf565b915061101683610eaf565b925082820190508082111561102e5761102d610fd1565b5b92915050565b600082825260208201905092915050565b7f4f6e6c79204f776e65722063616e2063616c6c20746869732066756e6374696f60008201527f6e2e000000000000000000000000000000000000000000000000000000000000602082015250565b60006110a1602283611034565b91506110ac82611045565b604082019050919050565b600060208201905081810360008301526110d081611094565b9050919050565b60006110e282610eaf565b91506110ed83610eaf565b925082820390508181111561110557611104610fd1565b5b92915050565b7f54686973206163636f756e7420646f6573206e6f7420616c6c6f7720746f206660008201527f61756365742074686973206f7074696f6e732100000000000000000000000000602082015250565b6000611167603383611034565b91506111728261110b565b604082019050919050565b600060208201905081810360008301526111968161115a565b9050919050565b7f4f6e6c792061646d696e2063616e20646f20746869732066756e6374696f6e00600082015250565b60006111d3601f83611034565b91506111de8261119d565b602082019050919050565b60006020820190508181036000830152611202816111c6565b9050919050565b7f596f7572206c6f636b2074696d652068617320657870697265642c20706c656160008201527f73652077616974206e6578742064617920746f20666175636574210000000000602082015250565b6000611265603b83611034565b915061127082611209565b604082019050919050565b6000602082019050818103600083015261129481611258565b9050919050565b7f596f7572206c6f636b2074696d652068617320657870697265642c20706c656160008201527f73652077616974206e657874207765656b20746f206661756365742100000000602082015250565b60006112f7603c83611034565b91506113028261129b565b604082019050919050565b60006020820190508181036000830152611326816112ea565b9050919050565b7f54686973206163636f756e7420686176652072756e206f7574206f662066617560008201527f63657420616d6f756e7400000000000000000000000000000000000000000000602082015250565b6000611389602a83611034565b91506113948261132d565b604082019050919050565b600060208201905081810360008301526113b88161137c565b905091905056fea2646970667358221220dd61f481ca93ee8dd5c61f6af18500f75013a1489e2049f03fcef302b56b1f2164736f6c63430008120033",
  "linkReferences": {},
  "deployedLinkReferences": {}
}