{
  "_format": "hh-sol-artifact-1",
  "contractName": "faucet",
  "sourceName": "contracts/Faucet.sol",
  "abi": [
    {
      "inputs": [],
      "stateMutability": "payable",
      "type": "constructor"
    },
    {
      "inputs": [],
      "name": "amountAllowedPerDay",
      "outputs": [
        {
          "internalType": "uint256",
          "name": "",
          "type": "uint256"
        }
      ],
      "stateMutability": "view",
      "type": "function"
    },
    {
      "inputs": [],
      "name": "amountAllowedPerMonth",
      "outputs": [
        {
          "internalType": "uint256",
          "name": "",
          "type": "uint256"
        }
      ],
      "stateMutability": "view",
      "type": "function"
    },
    {
      "inputs": [],
      "name": "amountAllowedPerWeek",
      "outputs": [
        {
          "internalType": "uint256",
          "name": "",
          "type": "uint256"
        }
      ],
      "stateMutability": "view",
      "type": "function"
    },
    {
      "inputs": [
        {
          "internalType": "address",
          "name": "",
          "type": "address"
        }
      ],
      "name": "amountFaucet",
      "outputs": [
        {
          "internalType": "uint256",
          "name": "",
          "type": "uint256"
        }
      ],
      "stateMutability": "view",
      "type": "function"
    },
    {
      "inputs": [],
      "name": "donate",
      "outputs": [],
      "stateMutability": "payable",
      "type": "function"
    },
    {
      "inputs": [
        {
          "internalType": "address payable",
          "name": "newAdmin",
          "type": "address"
        }
      ],
      "name": "grantAdmin",
      "outputs": [],
      "stateMutability": "nonpayable",
      "type": "function"
    },
    {
      "inputs": [
        {
          "internalType": "address payable",
          "name": "newOwner",
          "type": "address"
        }
      ],
      "name": "grantOwner",
      "outputs": [],
      "stateMutability": "nonpayable",
      "type": "function"
    },
    {
      "inputs": [
        {
          "internalType": "address",
          "name": "",
          "type": "address"
        }
      ],
      "name": "lockTime",
      "outputs": [
        {
          "internalType": "uint256",
          "name": "",
          "type": "uint256"
        }
      ],
      "stateMutability": "view",
      "type": "function"
    },
    {
      "inputs": [],
      "name": "owner",
      "outputs": [
        {
          "internalType": "address payable",
          "name": "",
          "type": "address"
        }
      ],
      "stateMutability": "view",
      "type": "function"
    },
    {
      "inputs": [
        {
          "internalType": "address payable",
          "name": "requestor",
          "type": "address"
        }
      ],
      "name": "requestTokenByMonth",
      "outputs": [],
      "stateMutability": "nonpayable",
      "type": "function"
    },
    {
      "inputs": [
        {
          "internalType": "address payable",
          "name": "requestor",
          "type": "address"
        }
      ],
      "name": "requestTokenByWeek",
      "outputs": [],
      "stateMutability": "nonpayable",
      "type": "function"
    },
    {
      "inputs": [
        {
          "internalType": "address payable",
          "name": "requestor",
          "type": "address"
        }
      ],
      "name": "requestTokensByDay",
      "outputs": [],
      "stateMutability": "nonpayable",
      "type": "function"
    },
    {
      "inputs": [
        {
          "internalType": "uint256",
          "name": "newAmountAllowed",
          "type": "uint256"
        }
      ],
      "name": "setAmountallowedPerDay",
      "outputs": [],
      "stateMutability": "nonpayable",
      "type": "function"
    },
    {
      "inputs": [
        {
          "internalType": "uint256",
          "name": "newAmountAllowed",
          "type": "uint256"
        }
      ],
      "name": "setAmountallowedPerMonth",
      "outputs": [],
      "stateMutability": "nonpayable",
      "type": "function"
    },
    {
      "inputs": [
        {
          "internalType": "uint256",
          "name": "newAmountAllowed",
          "type": "uint256"
        }
      ],
      "name": "setAmountallowedPerWeek",
      "outputs": [],
      "stateMutability": "nonpayable",
      "type": "function"
    },
    {
      "inputs": [],
      "name": "withdrawal",
      "outputs": [],
      "stateMutability": "nonpayable",
      "type": "function"
    },
    {
      "stateMutability": "payable",
      "type": "receive"
    }
  ],
  "bytecode": "0x6080604052670de0b6b3a76400006001556729a2241af62c0000600255678ac7230489e80000600355336000806101000a81548173ffffffffffffffffffffffffffffffffffffffff021916908373ffffffffffffffffffffffffffffffffffffffff1602179055506001600460008060009054906101000a900473ffffffffffffffffffffffffffffffffffffffff1673ffffffffffffffffffffffffffffffffffffffff1673ffffffffffffffffffffffffffffffffffffffff16815260200190815260200160002060006101000a81548160ff021916908315150217905550611478806100f06000396000f3fe6080604052600436106100f65760003560e01c8063a4beda631161008a578063dc97805911610059578063dc9780591461030a578063eb5155e014610333578063ed88c68e1461035c578063f11904d814610366576100fd565b8063a4beda6314610264578063c41fec04146102a1578063c90f174e146102ca578063d4e93292146102f3576100fd565b806335bb3e16116100c657806335bb3e16146101a85780638da5cb5b146101d157806397f6a5c9146101fc578063a145197d14610227576100fd565b80626b68fa1461010257806301518ec11461012b578063210333021461015457806321ec11961461017f576100fd565b366100fd57005b600080fd5b34801561010e57600080fd5b5061012960048036038101906101249190610f05565b610391565b005b34801561013757600080fd5b50610152600480360381019061014d9190610f05565b610519565b005b34801561016057600080fd5b5061016961061e565b6040516101769190610f4b565b60405180910390f35b34801561018b57600080fd5b506101a660048036038101906101a19190610f92565b610624565b005b3480156101b457600080fd5b506101cf60048036038101906101ca9190610f05565b6106bc565b005b3480156101dd57600080fd5b506101e66107a5565b6040516101f39190610fce565b60405180910390f35b34801561020857600080fd5b506102116107c9565b60405161021e9190610f4b565b60405180910390f35b34801561023357600080fd5b5061024e60048036038101906102499190611027565b6107cf565b60405161025b9190610f4b565b60405180910390f35b34801561027057600080fd5b5061028b60048036038101906102869190611027565b6107e7565b6040516102989190610f4b565b60405180910390f35b3480156102ad57600080fd5b506102c860048036038101906102c39190610f05565b6107ff565b005b3480156102d657600080fd5b506102f160048036038101906102ec9190610f92565b6109a0565b005b3480156102ff57600080fd5b50610308610a38565b005b34801561031657600080fd5b50610331600480360381019061032c9190610f05565b610b34565b005b34801561033f57600080fd5b5061035a60048036038101906103559190610f92565b610c05565b005b610364610c9d565b005b34801561037257600080fd5b5061037b610c9f565b6040516103889190610f4b565b60405180910390f35b61039a81610ca5565b6007600660008373ffffffffffffffffffffffffffffffffffffffff1673ffffffffffffffffffffffffffffffffffffffff16815260200190815260200160002054111561041d576040517f08c379a0000000000000000000000000000000000000000000000000000000008152600401610414906110d7565b60405180910390fd5b62093a804261042c9190611126565b600560008373ffffffffffffffffffffffffffffffffffffffff1673ffffffffffffffffffffffffffffffffffffffff168152602001908152602001600020819055506729a2241af62c0000600660008373ffffffffffffffffffffffffffffffffffffffff1673ffffffffffffffffffffffffffffffffffffffff16815260200190815260200160002060008282546104c69190611126565b925050819055508073ffffffffffffffffffffffffffffffffffffffff166108fc6002549081150290604051600060405180830381858888f19350505050158015610515573d6000803e3d6000fd5b5050565b61052281610ca5565b62015180426105319190611126565b600560008373ffffffffffffffffffffffffffffffffffffffff1673ffffffffffffffffffffffffffffffffffffffff16815260200190815260200160002081905550670de0b6b3a7640000600660008373ffffffffffffffffffffffffffffffffffffffff1673ffffffffffffffffffffffffffffffffffffffff16815260200190815260200160002060008282546105cb9190611126565b925050819055508073ffffffffffffffffffffffffffffffffffffffff166108fc6001549081150290604051600060405180830381858888f1935050505015801561061a573d6000803e3d6000fd5b5050565b60025481565b60008054906101000a900473ffffffffffffffffffffffffffffffffffffffff1673ffffffffffffffffffffffffffffffffffffffff163373ffffffffffffffffffffffffffffffffffffffff16146106b2576040517f08c379a00000000000000000000000000000000000000000000000000000000081526004016106a9906111cc565b60405180910390fd5b8060018190555050565b60008054906101000a900473ffffffffffffffffffffffffffffffffffffffff1673ffffffffffffffffffffffffffffffffffffffff163373ffffffffffffffffffffffffffffffffffffffff161461074a576040517f08c379a0000000000000000000000000000000000000000000000000000000008152600401610741906111cc565b60405180910390fd5b6001600460008373ffffffffffffffffffffffffffffffffffffffff1673ffffffffffffffffffffffffffffffffffffffff16815260200190815260200160002060006101000a81548160ff02191690831515021790555050565b60008054906101000a900473ffffffffffffffffffffffffffffffffffffffff1681565b60035481565b60066020528060005260406000206000915090505481565b60056020528060005260406000206000915090505481565b61080881610ca5565b678ac7230489e80000600660008373ffffffffffffffffffffffffffffffffffffffff1673ffffffffffffffffffffffffffffffffffffffff16815260200190815260200160002054678ac7230489e8000061086491906111ec565b146108a4576040517f08c379a000000000000000000000000000000000000000000000000000000000815260040161089b906110d7565b60405180910390fd5b62278d00426108b39190611126565b600560008373ffffffffffffffffffffffffffffffffffffffff1673ffffffffffffffffffffffffffffffffffffffff16815260200190815260200160002081905550678ac7230489e80000600660008373ffffffffffffffffffffffffffffffffffffffff1673ffffffffffffffffffffffffffffffffffffffff168152602001908152602001600020600082825461094d9190611126565b925050819055508073ffffffffffffffffffffffffffffffffffffffff166108fc6003549081150290604051600060405180830381858888f1935050505015801561099c573d6000803e3d6000fd5b5050565b60008054906101000a900473ffffffffffffffffffffffffffffffffffffffff1673ffffffffffffffffffffffffffffffffffffffff163373ffffffffffffffffffffffffffffffffffffffff1614610a2e576040517f08c379a0000000000000000000000000000000000000000000000000000000008152600401610a25906111cc565b60405180910390fd5b8060038190555050565b60011515600460003373ffffffffffffffffffffffffffffffffffffffff1673ffffffffffffffffffffffffffffffffffffffff16815260200190815260200160002060009054906101000a900460ff16151514610acb576040517f08c379a0000000000000000000000000000000000000000000000000000000008152600401610ac29061126c565b60405180910390fd5b60008054906101000a900473ffffffffffffffffffffffffffffffffffffffff1673ffffffffffffffffffffffffffffffffffffffff166108fc479081150290604051600060405180830381858888f19350505050158015610b31573d6000803e3d6000fd5b50565b60008054906101000a900473ffffffffffffffffffffffffffffffffffffffff1673ffffffffffffffffffffffffffffffffffffffff163373ffffffffffffffffffffffffffffffffffffffff1614610bc2576040517f08c379a0000000000000000000000000000000000000000000000000000000008152600401610bb9906111cc565b60405180910390fd5b806000806101000a81548173ffffffffffffffffffffffffffffffffffffffff021916908373ffffffffffffffffffffffffffffffffffffffff16021790555050565b60008054906101000a900473ffffffffffffffffffffffffffffffffffffffff1673ffffffffffffffffffffffffffffffffffffffff163373ffffffffffffffffffffffffffffffffffffffff1614610c93576040517f08c379a0000000000000000000000000000000000000000000000000000000008152600401610c8a906111cc565b60405180910390fd5b8060028190555050565b565b60015481565b42600560008373ffffffffffffffffffffffffffffffffffffffff1673ffffffffffffffffffffffffffffffffffffffff168152602001908152602001600020541115610e9f576201518042600560008473ffffffffffffffffffffffffffffffffffffffff1673ffffffffffffffffffffffffffffffffffffffff16815260200190815260200160002054610d3b91906111ec565b11610d7b576040517f08c379a0000000000000000000000000000000000000000000000000000000008152600401610d72906112fe565b60405180910390fd5b6201518042600560008473ffffffffffffffffffffffffffffffffffffffff1673ffffffffffffffffffffffffffffffffffffffff16815260200190815260200160002054610dca91906111ec565b118015610e24575062093a8042600560008473ffffffffffffffffffffffffffffffffffffffff1673ffffffffffffffffffffffffffffffffffffffff16815260200190815260200160002054610e2191906111ec565b11155b15610e64576040517f08c379a0000000000000000000000000000000000000000000000000000000008152600401610e5b90611390565b60405180910390fd5b6040517f08c379a0000000000000000000000000000000000000000000000000000000008152600401610e9690611422565b60405180910390fd5b50565b600080fd5b600073ffffffffffffffffffffffffffffffffffffffff82169050919050565b6000610ed282610ea7565b9050919050565b610ee281610ec7565b8114610eed57600080fd5b50565b600081359050610eff81610ed9565b92915050565b600060208284031215610f1b57610f1a610ea2565b5b6000610f2984828501610ef0565b91505092915050565b6000819050919050565b610f4581610f32565b82525050565b6000602082019050610f606000830184610f3c565b92915050565b610f6f81610f32565b8114610f7a57600080fd5b50565b600081359050610f8c81610f66565b92915050565b600060208284031215610fa857610fa7610ea2565b5b6000610fb684828501610f7d565b91505092915050565b610fc881610ec7565b82525050565b6000602082019050610fe36000830184610fbf565b92915050565b6000610ff482610ea7565b9050919050565b61100481610fe9565b811461100f57600080fd5b50565b60008135905061102181610ffb565b92915050565b60006020828403121561103d5761103c610ea2565b5b600061104b84828501611012565b91505092915050565b600082825260208201905092915050565b7f54686973206163636f756e7420646f6573206e6f7420616c6c6f7720746f206660008201527f61756365742074686973206f7074696f6e732100000000000000000000000000602082015250565b60006110c1603383611054565b91506110cc82611065565b604082019050919050565b600060208201905081810360008301526110f0816110b4565b9050919050565b7f4e487b7100000000000000000000000000000000000000000000000000000000600052601160045260246000fd5b600061113182610f32565b915061113c83610f32565b9250828201905080821115611154576111536110f7565b5b92915050565b7f4f6e6c79204f776e65722063616e2063616c6c20746869732066756e6374696f60008201527f6e2e000000000000000000000000000000000000000000000000000000000000602082015250565b60006111b6602283611054565b91506111c18261115a565b604082019050919050565b600060208201905081810360008301526111e5816111a9565b9050919050565b60006111f782610f32565b915061120283610f32565b925082820390508181111561121a576112196110f7565b5b92915050565b7f4f6e6c792061646d696e2063616e20646f20746869732066756e6374696f6e00600082015250565b6000611256601f83611054565b915061126182611220565b602082019050919050565b6000602082019050818103600083015261128581611249565b9050919050565b7f596f7572206c6f636b2074696d652068617320657870697265642c20706c656160008201527f73652077616974206e6578742064617920746f20666175636574210000000000602082015250565b60006112e8603b83611054565b91506112f38261128c565b604082019050919050565b60006020820190508181036000830152611317816112db565b9050919050565b7f596f7572206c6f636b2074696d652068617320657870697265642c20706c656160008201527f73652077616974206e657874207765656b20746f206661756365742100000000602082015250565b600061137a603c83611054565b91506113858261131e565b604082019050919050565b600060208201905081810360008301526113a98161136d565b9050919050565b7f54686973206163636f756e7420686176652072756e206f7574206f662066617560008201527f63657420616d6f756e7400000000000000000000000000000000000000000000602082015250565b600061140c602a83611054565b9150611417826113b0565b604082019050919050565b6000602082019050818103600083015261143b816113ff565b905091905056fea2646970667358221220ebfc00a3317c0361db87151ce19239dd1002e9b9abe4632d5ed1b6b145fe52ae64736f6c63430008120033",
  "linkReferences": {},
  "deployedLinkReferences": {}
}