{
  "_format": "hh-sol-artifact-1",
  "contractName": "faucet",
  "sourceName": "contracts/Faucet.sol",
  "abi": [
    {
      "inputs": [],
      "stateMutability": "payable",
      "type": "constructor"
    },
    {
      "inputs": [],
      "name": "amountAllowedPerDay",
      "outputs": [
        {
          "internalType": "uint256",
          "name": "",
          "type": "uint256"
        }
      ],
      "stateMutability": "view",
      "type": "function"
    },
    {
      "inputs": [],
      "name": "amountAllowedPerMonth",
      "outputs": [
        {
          "internalType": "uint256",
          "name": "",
          "type": "uint256"
        }
      ],
      "stateMutability": "view",
      "type": "function"
    },
    {
      "inputs": [],
      "name": "amountAllowedPerWeek",
      "outputs": [
        {
          "internalType": "uint256",
          "name": "",
          "type": "uint256"
        }
      ],
      "stateMutability": "view",
      "type": "function"
    },
    {
      "inputs": [
        {
          "internalType": "address",
          "name": "",
          "type": "address"
        }
      ],
      "name": "amountFaucet",
      "outputs": [
        {
          "internalType": "uint256",
          "name": "",
          "type": "uint256"
        }
      ],
      "stateMutability": "view",
      "type": "function"
    },
    {
      "inputs": [],
      "name": "donate",
      "outputs": [],
      "stateMutability": "payable",
      "type": "function"
    },
    {
      "inputs": [
        {
          "internalType": "address payable",
          "name": "newOwner",
          "type": "address"
        }
      ],
      "name": "grantOwner",
      "outputs": [],
      "stateMutability": "nonpayable",
      "type": "function"
    },
    {
      "inputs": [
        {
          "internalType": "address",
          "name": "",
          "type": "address"
        }
      ],
      "name": "lockTime",
      "outputs": [
        {
          "internalType": "uint256",
          "name": "",
          "type": "uint256"
        }
      ],
      "stateMutability": "view",
      "type": "function"
    },
    {
      "inputs": [],
      "name": "owner",
      "outputs": [
        {
          "internalType": "address payable",
          "name": "",
          "type": "address"
        }
      ],
      "stateMutability": "view",
      "type": "function"
    },
    {
      "inputs": [
        {
          "internalType": "address payable",
          "name": "requestor",
          "type": "address"
        }
      ],
      "name": "requestTokenByMonth",
      "outputs": [],
      "stateMutability": "nonpayable",
      "type": "function"
    },
    {
      "inputs": [
        {
          "internalType": "address payable",
          "name": "requestor",
          "type": "address"
        }
      ],
      "name": "requestTokenByWeek",
      "outputs": [],
      "stateMutability": "nonpayable",
      "type": "function"
    },
    {
      "inputs": [
        {
          "internalType": "address payable",
          "name": "requestor",
          "type": "address"
        }
      ],
      "name": "requestTokensByDay",
      "outputs": [],
      "stateMutability": "nonpayable",
      "type": "function"
    },
    {
      "inputs": [
        {
          "internalType": "uint256",
          "name": "newAmountAllowed",
          "type": "uint256"
        }
      ],
      "name": "setAmountallowedPerDay",
      "outputs": [],
      "stateMutability": "nonpayable",
      "type": "function"
    },
    {
      "inputs": [
        {
          "internalType": "uint256",
          "name": "newAmountAllowed",
          "type": "uint256"
        }
      ],
      "name": "setAmountallowedPerMonth",
      "outputs": [],
      "stateMutability": "nonpayable",
      "type": "function"
    },
    {
      "inputs": [
        {
          "internalType": "uint256",
          "name": "newAmountAllowed",
          "type": "uint256"
        }
      ],
      "name": "setAmountallowedPerWeek",
      "outputs": [],
      "stateMutability": "nonpayable",
      "type": "function"
    },
    {
      "inputs": [],
      "name": "withdrawal",
      "outputs": [],
      "stateMutability": "nonpayable",
      "type": "function"
    }
  ],
  "bytecode": "0x6080604052670de0b6b3a76400006001556729a2241af62c0000600255678ac7230489e80000600355336000806101000a81548173ffffffffffffffffffffffffffffffffffffffff021916908373ffffffffffffffffffffffffffffffffffffffff160217905550611292806100776000396000f3fe6080604052600436106100e75760003560e01c8063a4beda631161008a578063dc97805911610059578063dc978059146102cb578063eb5155e0146102f4578063ed88c68e1461031d578063f11904d814610327576100e7565b8063a4beda6314610225578063c41fec0414610262578063c90f174e1461028b578063d4e93292146102b4576100e7565b806321ec1196116100c657806321ec1196146101695780638da5cb5b1461019257806397f6a5c9146101bd578063a145197d146101e8576100e7565b80626b68fa146100ec57806301518ec114610115578063210333021461013e575b600080fd5b3480156100f857600080fd5b50610113600480360381019061010e9190610dbf565b610352565b005b34801561012157600080fd5b5061013c60048036038101906101379190610dbf565b610558565b005b34801561014a57600080fd5b5061015361075e565b6040516101609190610e05565b60405180910390f35b34801561017557600080fd5b50610190600480360381019061018b9190610e4c565b610764565b005b34801561019e57600080fd5b506101a76107fc565b6040516101b49190610e88565b60405180910390f35b3480156101c957600080fd5b506101d2610820565b6040516101df9190610e05565b60405180910390f35b3480156101f457600080fd5b5061020f600480360381019061020a9190610ee1565b610826565b60405161021c9190610e05565b60405180910390f35b34801561023157600080fd5b5061024c60048036038101906102479190610ee1565b61083e565b6040516102599190610e05565b60405180910390f35b34801561026e57600080fd5b5061028960048036038101906102849190610dbf565b610856565b005b34801561029757600080fd5b506102b260048036038101906102ad9190610e4c565b610a5c565b005b3480156102c057600080fd5b506102c9610af4565b005b3480156102d757600080fd5b506102f260048036038101906102ed9190610dbf565b610beb565b005b34801561030057600080fd5b5061031b60048036038101906103169190610e4c565b610cbc565b005b610325610d54565b005b34801561033357600080fd5b5061033c610d56565b6040516103499190610e05565b60405180910390f35b678ac7230489e80000600560008373ffffffffffffffffffffffffffffffffffffffff1673ffffffffffffffffffffffffffffffffffffffff16815260200190815260200160002054106103db576040517f08c379a00000000000000000000000000000000000000000000000000000000081526004016103d290610f91565b60405180910390fd5b42600460008373ffffffffffffffffffffffffffffffffffffffff1673ffffffffffffffffffffffffffffffffffffffff168152602001908152602001600020541061045c576040517f08c379a000000000000000000000000000000000000000000000000000000000815260040161045390611023565b60405180910390fd5b62093a804261046b9190611072565b600460008373ffffffffffffffffffffffffffffffffffffffff1673ffffffffffffffffffffffffffffffffffffffff168152602001908152602001600020819055506729a2241af62c0000600560008373ffffffffffffffffffffffffffffffffffffffff1673ffffffffffffffffffffffffffffffffffffffff16815260200190815260200160002060008282546105059190611072565b925050819055508073ffffffffffffffffffffffffffffffffffffffff166108fc6002549081150290604051600060405180830381858888f19350505050158015610554573d6000803e3d6000fd5b5050565b678ac7230489e80000600560008373ffffffffffffffffffffffffffffffffffffffff1673ffffffffffffffffffffffffffffffffffffffff16815260200190815260200160002054106105e1576040517f08c379a00000000000000000000000000000000000000000000000000000000081526004016105d890610f91565b60405180910390fd5b42600460008373ffffffffffffffffffffffffffffffffffffffff1673ffffffffffffffffffffffffffffffffffffffff1681526020019081526020016000205410610662576040517f08c379a000000000000000000000000000000000000000000000000000000000815260040161065990611118565b60405180910390fd5b62015180426106719190611072565b600460008373ffffffffffffffffffffffffffffffffffffffff1673ffffffffffffffffffffffffffffffffffffffff16815260200190815260200160002081905550670de0b6b3a7640000600560008373ffffffffffffffffffffffffffffffffffffffff1673ffffffffffffffffffffffffffffffffffffffff168152602001908152602001600020600082825461070b9190611072565b925050819055508073ffffffffffffffffffffffffffffffffffffffff166108fc6001549081150290604051600060405180830381858888f1935050505015801561075a573d6000803e3d6000fd5b5050565b60025481565b60008054906101000a900473ffffffffffffffffffffffffffffffffffffffff1673ffffffffffffffffffffffffffffffffffffffff163373ffffffffffffffffffffffffffffffffffffffff16146107f2576040517f08c379a00000000000000000000000000000000000000000000000000000000081526004016107e9906111aa565b60405180910390fd5b8060018190555050565b60008054906101000a900473ffffffffffffffffffffffffffffffffffffffff1681565b60035481565b60056020528060005260406000206000915090505481565b60046020528060005260406000206000915090505481565b678ac7230489e80000600560008373ffffffffffffffffffffffffffffffffffffffff1673ffffffffffffffffffffffffffffffffffffffff16815260200190815260200160002054106108df576040517f08c379a00000000000000000000000000000000000000000000000000000000081526004016108d690610f91565b60405180910390fd5b42600460008373ffffffffffffffffffffffffffffffffffffffff1673ffffffffffffffffffffffffffffffffffffffff1681526020019081526020016000205410610960576040517f08c379a00000000000000000000000000000000000000000000000000000000081526004016109579061123c565b60405180910390fd5b62093a804261096f9190611072565b600460008373ffffffffffffffffffffffffffffffffffffffff1673ffffffffffffffffffffffffffffffffffffffff16815260200190815260200160002081905550678ac7230489e80000600560008373ffffffffffffffffffffffffffffffffffffffff1673ffffffffffffffffffffffffffffffffffffffff1681526020019081526020016000206000828254610a099190611072565b925050819055508073ffffffffffffffffffffffffffffffffffffffff166108fc6003549081150290604051600060405180830381858888f19350505050158015610a58573d6000803e3d6000fd5b5050565b60008054906101000a900473ffffffffffffffffffffffffffffffffffffffff1673ffffffffffffffffffffffffffffffffffffffff163373ffffffffffffffffffffffffffffffffffffffff1614610aea576040517f08c379a0000000000000000000000000000000000000000000000000000000008152600401610ae1906111aa565b60405180910390fd5b8060038190555050565b60008054906101000a900473ffffffffffffffffffffffffffffffffffffffff1673ffffffffffffffffffffffffffffffffffffffff163373ffffffffffffffffffffffffffffffffffffffff1614610b82576040517f08c379a0000000000000000000000000000000000000000000000000000000008152600401610b79906111aa565b60405180910390fd5b60008054906101000a900473ffffffffffffffffffffffffffffffffffffffff1673ffffffffffffffffffffffffffffffffffffffff166108fc479081150290604051600060405180830381858888f19350505050158015610be8573d6000803e3d6000fd5b50565b60008054906101000a900473ffffffffffffffffffffffffffffffffffffffff1673ffffffffffffffffffffffffffffffffffffffff163373ffffffffffffffffffffffffffffffffffffffff1614610c79576040517f08c379a0000000000000000000000000000000000000000000000000000000008152600401610c70906111aa565b60405180910390fd5b806000806101000a81548173ffffffffffffffffffffffffffffffffffffffff021916908373ffffffffffffffffffffffffffffffffffffffff16021790555050565b60008054906101000a900473ffffffffffffffffffffffffffffffffffffffff1673ffffffffffffffffffffffffffffffffffffffff163373ffffffffffffffffffffffffffffffffffffffff1614610d4a576040517f08c379a0000000000000000000000000000000000000000000000000000000008152600401610d41906111aa565b60405180910390fd5b8060028190555050565b565b60015481565b600080fd5b600073ffffffffffffffffffffffffffffffffffffffff82169050919050565b6000610d8c82610d61565b9050919050565b610d9c81610d81565b8114610da757600080fd5b50565b600081359050610db981610d93565b92915050565b600060208284031215610dd557610dd4610d5c565b5b6000610de384828501610daa565b91505092915050565b6000819050919050565b610dff81610dec565b82525050565b6000602082019050610e1a6000830184610df6565b92915050565b610e2981610dec565b8114610e3457600080fd5b50565b600081359050610e4681610e20565b92915050565b600060208284031215610e6257610e61610d5c565b5b6000610e7084828501610e37565b91505092915050565b610e8281610d81565b82525050565b6000602082019050610e9d6000830184610e79565b92915050565b6000610eae82610d61565b9050919050565b610ebe81610ea3565b8114610ec957600080fd5b50565b600081359050610edb81610eb5565b92915050565b600060208284031215610ef757610ef6610d5c565b5b6000610f0584828501610ecc565b91505092915050565b600082825260208201905092915050565b7f54686973206163636f756e74206861642072756e206f7574206f66206661756360008201527f657420746f6b656e20616d6f756e740000000000000000000000000000000000602082015250565b6000610f7b602f83610f0e565b9150610f8682610f1f565b604082019050919050565b60006020820190508181036000830152610faa81610f6e565b9050919050565b7f596f7572206c6f636b2074696d652068617320657870697265642c20706c656160008201527f73652077616974206e657874207765656b20746f206661756365742100000000602082015250565b600061100d603c83610f0e565b915061101882610fb1565b604082019050919050565b6000602082019050818103600083015261103c81611000565b9050919050565b7f4e487b7100000000000000000000000000000000000000000000000000000000600052601160045260246000fd5b600061107d82610dec565b915061108883610dec565b92508282019050808211156110a05761109f611043565b5b92915050565b7f596f7572206c6f636b2074696d652068617320657870697265642c20706c656160008201527f73652077616974206e6578742064617920746f20666175636574210000000000602082015250565b6000611102603b83610f0e565b915061110d826110a6565b604082019050919050565b60006020820190508181036000830152611131816110f5565b9050919050565b7f4f6e6c79204f776e65722063616e2063616c6c20746869732066756e6374696f60008201527f6e2e000000000000000000000000000000000000000000000000000000000000602082015250565b6000611194602283610f0e565b915061119f82611138565b604082019050919050565b600060208201905081810360008301526111c381611187565b9050919050565b7f596f7572206c6f636b2074696d652068617320657870697265642c20706c656160008201527f7365207761697420746f20666175636574210000000000000000000000000000602082015250565b6000611226603283610f0e565b9150611231826111ca565b604082019050919050565b6000602082019050818103600083015261125581611219565b905091905056fea264697066735822122052fdda204c4d74b6519d040f3e0277d20885d15488665d3105f66903e9da7abb64736f6c63430008120033",
  "linkReferences": {},
  "deployedLinkReferences": {}
}